{
  "contractName": "ERC20",
  "abi": [
    {
      "constant": true,
      "inputs": [],
      "name": "owner",
      "outputs": [
        {
          "name": "",
          "type": "address"
        }
      ],
      "payable": false,
      "stateMutability": "view",
      "type": "function",
      "signature": "0x8da5cb5b"
    },
    {
      "inputs": [
        {
          "name": "initialSupply",
          "type": "uint256"
        }
      ],
      "payable": false,
      "stateMutability": "nonpayable",
      "type": "constructor",
      "signature": "constructor"
    },
    {
      "anonymous": false,
      "inputs": [
        {
          "indexed": true,
          "name": "from",
          "type": "address"
        },
        {
          "indexed": true,
          "name": "to",
          "type": "address"
        },
        {
          "indexed": false,
          "name": "value",
          "type": "uint256"
        }
      ],
      "name": "Transfer",
      "type": "event",
      "signature": "0xddf252ad1be2c89b69c2b068fc378daa952ba7f163c4a11628f55a4df523b3ef"
    },
    {
      "anonymous": false,
      "inputs": [
        {
          "indexed": true,
          "name": "owner",
          "type": "address"
        },
        {
          "indexed": true,
          "name": "spender",
          "type": "address"
        },
        {
          "indexed": false,
          "name": "value",
          "type": "uint256"
        }
      ],
      "name": "Approval",
      "type": "event",
      "signature": "0x8c5be1e5ebec7d5bd14f71427d1e84f3dd0314c0f7b2291e5b200ac8c7c3b925"
    },
    {
      "constant": true,
      "inputs": [],
      "name": "totalSupply",
      "outputs": [
        {
          "name": "",
          "type": "uint256"
        }
      ],
      "payable": false,
      "stateMutability": "view",
      "type": "function",
      "signature": "0x18160ddd"
    },
    {
      "constant": true,
      "inputs": [
        {
          "name": "account",
          "type": "address"
        }
      ],
      "name": "balanceOf",
      "outputs": [
        {
          "name": "",
          "type": "uint256"
        }
      ],
      "payable": false,
      "stateMutability": "view",
      "type": "function",
      "signature": "0x70a08231"
    },
    {
      "constant": true,
      "inputs": [
        {
          "name": "account",
          "type": "address"
        },
        {
          "name": "spender",
          "type": "address"
        }
      ],
      "name": "allowance",
      "outputs": [
        {
          "name": "",
          "type": "uint256"
        }
      ],
      "payable": false,
      "stateMutability": "view",
      "type": "function",
      "signature": "0xdd62ed3e"
    },
    {
      "constant": false,
      "inputs": [
        {
          "name": "to",
          "type": "address"
        },
        {
          "name": "value",
          "type": "uint256"
        }
      ],
      "name": "transfer",
      "outputs": [
        {
          "name": "",
          "type": "bool"
        }
      ],
      "payable": false,
      "stateMutability": "nonpayable",
      "type": "function",
      "signature": "0xa9059cbb"
    },
    {
      "constant": false,
      "inputs": [
        {
          "name": "spender",
          "type": "address"
        },
        {
          "name": "value",
          "type": "uint256"
        }
      ],
      "name": "approve",
      "outputs": [
        {
          "name": "",
          "type": "bool"
        }
      ],
      "payable": false,
      "stateMutability": "nonpayable",
      "type": "function",
      "signature": "0x095ea7b3"
    },
    {
      "constant": false,
      "inputs": [
        {
          "name": "from",
          "type": "address"
        },
        {
          "name": "to",
          "type": "address"
        },
        {
          "name": "value",
          "type": "uint256"
        }
      ],
      "name": "transferFrom",
      "outputs": [
        {
          "name": "",
          "type": "bool"
        }
      ],
      "payable": false,
      "stateMutability": "nonpayable",
      "type": "function",
      "signature": "0x23b872dd"
    },
    {
      "constant": false,
      "inputs": [
        {
          "name": "value",
          "type": "uint256"
        }
      ],
      "name": "mint",
      "outputs": [],
      "payable": false,
      "stateMutability": "nonpayable",
      "type": "function",
      "signature": "0xa0712d68"
    }
  ],
  "bytecode": "0x608060405234801561001057600080fd5b506040516020806106638339810180604052602081101561003057600080fd5b505160038054600160a060020a0319163317908190556002829055600160a060020a03166000908152602081905260409020556105f1806100726000396000f3fe60806040526004361061008d5763ffffffff7c0100000000000000000000000000000000000000000000000000000000600035041663095ea7b3811461009257806318160ddd146100df57806323b872dd1461010657806370a08231146101495780638da5cb5b1461017c578063a0712d68146101ad578063a9059cbb146101d9578063dd62ed3e14610212575b600080fd5b34801561009e57600080fd5b506100cb600480360360408110156100b557600080fd5b50600160a060020a03813516906020013561024d565b604080519115158252519081900360200190f35b3480156100eb57600080fd5b506100f46102cf565b60408051918252519081900360200190f35b34801561011257600080fd5b506100cb6004803603606081101561012957600080fd5b50600160a060020a038135811691602081013590911690604001356102d5565b34801561015557600080fd5b506100f46004803603602081101561016c57600080fd5b5035600160a060020a03166103c6565b34801561018857600080fd5b506101916103e1565b60408051600160a060020a039092168252519081900360200190f35b3480156101b957600080fd5b506101d7600480360360208110156101d057600080fd5b50356103f0565b005b3480156101e557600080fd5b506100cb600480360360408110156101fc57600080fd5b50600160a060020a038135169060200135610489565b34801561021e57600080fd5b506100f46004803603604081101561023557600080fd5b50600160a060020a038135811691602001351661056c565b600082600160a060020a038116151561026557600080fd5b336000908152600160209081526040808320600160a060020a038881168086529184529382902087905560035482518881529251919416927f8c5be1e5ebec7d5bd14f71427d1e84f3dd0314c0f7b2291e5b200ac8c7c3b925928290030190a35060019392505050565b60025490565b600160a060020a03808416600090815260016020908152604080832093861683529290529081205482111561030957600080fd5b600160a060020a038416600090815260208190526040902054610332908363ffffffff61059716565b600160a060020a038086166000908152602081905260408082209390935590851681522054610367908363ffffffff6105ac16565b600160a060020a038085166000818152602081815260409182902094909455805186815290519193928816927fddf252ad1be2c89b69c2b068fc378daa952ba7f163c4a11628f55a4df523b3ef92918290030190a35060019392505050565b600160a060020a031660009081526020819052604090205490565b600354600160a060020a031681565b600354600160a060020a0316331461040757600080fd5b60025461041a908263ffffffff6105ac16565b6002553360009081526020819052604090205461043d908263ffffffff6105ac16565b336000818152602081815260408083209490945583518581529351929391927fddf252ad1be2c89b69c2b068fc378daa952ba7f163c4a11628f55a4df523b3ef9281900390910190a350565b600082600160a060020a03811615156104a157600080fd5b336000908152602081905260409020548311156104bd57600080fd5b336000908152602081905260409020546104dd908463ffffffff61059716565b3360009081526020819052604080822092909255600160a060020a0386168152205461050f908463ffffffff6105ac16565b600160a060020a038516600081815260208181526040918290209390935580518681529051919233927fddf252ad1be2c89b69c2b068fc378daa952ba7f163c4a11628f55a4df523b3ef9281900390910190a35060019392505050565b600160a060020a03918216600090815260016020908152604080832093909416825291909152205490565b6000828211156105a657600080fd5b50900390565b6000828201838110156105be57600080fd5b939250505056fea165627a7a723058205c0ccfcbdcd7d138ec96b87d0d286ab3a513eed9ab9f8fbafafd48a65bf8efc00029",
  "source": "pragma solidity ^0.5.0;\n\nimport \"./IERC20.sol\";\nimport \"./SafeMath.sol\";\n\n/**\n * @title (Modified) Standard ERC20 token\n *\n * @dev Implementation of the basic standard token.\n * https://eips.ethereum.org/EIPS/eip-20\n *\n * Modified from https://raw.githubusercontent.com/OpenZeppelin/openzeppelin-solidity/master/contracts/token/ERC20/ERC20.sol\n */\ncontract ERC20 is IERC20 {\n    using SafeMath for uint256;\n\n    // Account balances\n    mapping (address => uint256) private _balances;\n    // Pre-approved transfer amounts (for transferFrom)\n    mapping (address => mapping (address => uint256)) private _allowed;\n    // Total number of tokens in existence\n    uint256 private _totalSupply;\n    // Owner of contract\n    address public owner;\n\n    modifier onlyOwner {\n        require(msg.sender == owner);\n        _;\n    }\n\n    modifier notZeroAddress(address account) {\n        require(account != address(0));\n        _;\n    }\n\n\n    constructor(uint256 initialSupply) public {\n        owner = msg.sender;\n        _totalSupply = initialSupply;\n        _balances[owner] = initialSupply;\n    }\n\n    /**\n     * @dev Total number of tokens in existence\n     */\n    function totalSupply() public view returns (uint256) {\n        return _totalSupply;\n    }\n\n    /**\n     * @dev Gets the balance of the specified address.\n     * @param account The address to query the balance of.\n     * @return A uint256 representing the amount owned by the passed address.\n     */\n    function balanceOf(address account) public view returns (uint256) {\n        return _balances[account];\n    }\n\n    /**\n     * @dev Function to check the amount of tokens that an account allowed to a spender.\n     * @param account address The address which owns the funds.\n     * @param spender address The address which will spend the funds.\n     * @return A uint256 specifying the amount of tokens still available for the spender.\n     */\n    function allowance(address account, address spender) public view returns (uint256) {\n        return _allowed[account][spender];\n    }\n\n    /**\n     * @dev Transfer token to a specified address\n     * @param to The address to transfer to.\n     * @param value The amount to be transferred.\n     */\n    function transfer(address to, uint256 value) public notZeroAddress(to) returns (bool) {\n        require(_balances[msg.sender] >= value);\n\n        _balances[msg.sender] = _balances[msg.sender].sub(value);\n        _balances[to] = _balances[to].add(value);\n        emit Transfer(msg.sender, to, value);\n\n        return true;\n    }\n\n    /**\n     * @dev Approve the passed address to spend the specified amount of tokens on behalf of msg.sender.\n     * @param spender The address which will spend the funds.\n     * @param value The amount of tokens to be spent.\n     */\n    function approve(address spender, uint256 value) public notZeroAddress(spender) returns (bool) {\n        _allowed[msg.sender][spender] = value;\n        emit Approval(owner, spender, value);\n        return true;\n    }\n\n    /**\n     * @dev Transfer tokens from one address to another.\n     * Note that while this function emits an Approval event, this is not required as per the specification.\n     * @param from address The address which you want to send tokens from\n     * @param to address The address which you want to transfer to\n     * @param value uint256 the amount of tokens to be transferred\n     */\n    function transferFrom(address from, address to, uint256 value) public returns (bool) {\n        require(_allowed[from][to] >= value);\n\n        _balances[from] = _balances[from].sub(value);\n        _balances[to] = _balances[to].add(value);\n        emit Transfer(from, to, value);\n        return true;\n    }\n\n\n    /**\n     * @dev Creates an amount of the token and assigns it to the contract owners\n     * account.\n     * @param value The amount that will be created.\n     */\n    function mint(uint256 value) public onlyOwner {\n        _totalSupply = _totalSupply.add(value);\n        _balances[msg.sender] = _balances[msg.sender].add(value);\n        emit Transfer(address(0), msg.sender, value);\n    }\n\n    /**\n     * @dev Destroys an amount of the token of a given account.\n     * @param value The amount that will be burnt.\n     */\n    function burn(uint256 value) internal {\n        require(_balances[msg.sender] >= value);\n\n        _totalSupply = _totalSupply.sub(value);\n        _balances[msg.sender] = _balances[msg.sender].sub(value);\n        emit Transfer(msg.sender, address(0), value);\n    }\n}\n",
  "sourcePath": "/home/david/dev/chainsafe/erc20ui/solidity/contracts/ERC20.sol",
  "compiler": {
    "name": "solc",
    "version": "0.5.0+commit.1d4f565a.Emscripten.clang"
  },
  "schemaVersion": "3.0.3",
  "updatedAt": "2019-03-18T00:54:13.178Z",
  "devdoc": {
    "details": "Implementation of the basic standard token. https://eips.ethereum.org/EIPS/eip-20 * Modified from https://raw.githubusercontent.com/OpenZeppelin/openzeppelin-solidity/master/contracts/token/ERC20/ERC20.sol",
    "methods": {
      "allowance(address,address)": {
        "details": "Function to check the amount of tokens that an account allowed to a spender.",
        "params": {
          "account": "address The address which owns the funds.",
          "spender": "address The address which will spend the funds."
        },
        "return": "A uint256 specifying the amount of tokens still available for the spender."
      },
      "approve(address,uint256)": {
        "details": "Approve the passed address to spend the specified amount of tokens on behalf of msg.sender.",
        "params": {
          "spender": "The address which will spend the funds.",
          "value": "The amount of tokens to be spent."
        }
      },
      "balanceOf(address)": {
        "details": "Gets the balance of the specified address.",
        "params": {
          "account": "The address to query the balance of."
        },
        "return": "A uint256 representing the amount owned by the passed address."
      },
      "mint(uint256)": {
        "details": "Creates an amount of the token and assigns it to the contract owners account.",
        "params": {
          "value": "The amount that will be created."
        }
      },
      "totalSupply()": {
        "details": "Total number of tokens in existence"
      },
      "transfer(address,uint256)": {
        "details": "Transfer token to a specified address",
        "params": {
          "to": "The address to transfer to.",
          "value": "The amount to be transferred."
        }
      },
      "transferFrom(address,address,uint256)": {
        "details": "Transfer tokens from one address to another. Note that while this function emits an Approval event, this is not required as per the specification.",
        "params": {
          "from": "address The address which you want to send tokens from",
          "to": "address The address which you want to transfer to",
          "value": "uint256 the amount of tokens to be transferred"
        }
      }
    },
    "title": "(Modified) Standard ERC20 token"
  },
  "userdoc": {
    "methods": {}
  }
}